:020000040000FA
:02000000FD2BD6
:1004B20000308312A000A1000130A2000030A3008E
:1004C2002F23080001308312A0000030A100013068
:1004D200A2000030A3002F230800592263224E30CD
:1004E2008312A700EB30A600A60B752AA70B752A6C
:1004F20008009E22C3224E308312A700EB30A600D2
:10050200A60B812AA70B812A08005922B0224E305D
:100512008312A700EB30A600A60B8D2AA70B8D2A0B
:1005220008009E2263224E308312A700EB30A60001
:10053200A60B992AA70B992A080000308312A00063
:10054200A1000130A2000030A3000B23003083126F
:10055200A000A1000030A200A3002F230800013058
:100562008312A0000030A1000030A200A3000B23E0
:1005720001308312A0000030A1000030A200A300CD
:100582002F23080001308312A0000030A1000130A7
:10059200A2000030A3000B2301308312A000003020
:1005A200A1000030A200A3002F2308000130831213
:1005B200A200200ADE2A0310A20DFF3E031DDC2A40
:1005C200220805050319E62AE72AEC2A0130A000D1
:1005D2000030A100EE2AA001A101080059226322E5
:1005E20008308312A8009D30A7000530A600A60B94
:1005F200F82AA70BF82AA80BF82AFF2AB022033000
:100602008312A7009730A600A60B052BA70B052B7C
:100612000A2B0800831222082304031D112B122B1C
:10062200212B0130A400200A182B0310A40DFF3E39
:10063200031D162B2408FF3AA500250885052E2B3D
:100642000130A400200A272B0310A40DFF3E031D36
:10065200252B2408A50025088504080083122203FF
:100662002304031D352B362B542B0130A400200A02
:100672003C2B0310A40DFF3E031D3A2B2408A500BA
:1006820025088316850401308312A400200A4B2B0F
:100692000310A40DFF3E031D492B2408FF3AA500B9
:1006A20025088505872B023022062304031D5A2BB9
:1006B2005B2B782B0130A400200A612B0310A40DC0
:1006C200FF3E031D5F2B2408A50025088316850421
:1006D20001308312A400200A702B0310A40DFF3EE8
:1006E200031D6E2B2408A50025088504872B0130E5
:1006F200A400200A7E2B0310A40DFF3E031D7C2BB9
:100702002408FF3AA50025088316850508008316EC
:100712009F0183129F010730990083169901850179
:10072200831285010230A0000030A1000230A20035
:100732000030A3002F2382308312AE00DD30AD00E3
:10074200AD0BA12BAE0BA12BA62BEF2206308312F1
:10075200AF001330AE00AD30AD00AD0BAE2BAE0B23
:10076200AE2BAF0BAE2BB52B8312B001023083122E
:10077200A0000030A100D722831220082104031D0B
:10078200C32BC42BCF2B0130AD002D08B007043092
:100792003002031CCD2BCE2BCF2BB0013008031D12
:1007A200D32BD42BD62B8622ED2B3003031DDA2B31
:1007B200DB2BDD2B9222ED2B02303006031DE22BC8
:1007C200E32BE52B6E22ED2B03303006031DEA2BC3
:1007D200EB2BED2B7A22ED2B02308312AF0004308B
:1007E200AE00BA30AD00AD0BF42BAE0BF42BAF0B59
:0C07F200F42B0000B72B00288301882B9B
:02400E00D431AB
:00000001FF
