:020000040000FA
:02000000FD2BD6
:10041A0000308312A000A1000130A2000030A30026
:10042A002423080001308312A0000030A10001300B
:10043A00A2000030A300242308000D2217224E3008
:10044A008312A700EB30A600A60B292AA70B292A9C
:10045A000800522277224E308312A700EB30A60002
:10046A00A60B352AA70B352A08000D2264224E3026
:10047A008312A700EB30A600A60B412AA70B412A3C
:10048A000800522217224E308312A700EB30A60032
:10049A00A60B4D2AA70B4D2A080000308312A00094
:1004AA00A1000130A2000030A300D4220030831240
:1004BA00A000A1000030A200A300242308000130FC
:1004CA008312A0000030A1000030A200A300D422B1
:1004DA0001308312A0000030A1000030A200A30066
:1004EA002423080001308312A0000030A10001304B
:1004FA00A2000030A300D42201308312A0000030F1
:10050A00A1000030A200A300242308008312A10046
:10051A00640083169C18922A932A8D2A8312210832
:10052A0083169B003F308312A000200883169C0587
:10053A001C141A08080001308312A200200AA72AF4
:10054A000310A20DFF3E031DA52A22080505031963
:10055A00AF2AB02AB52A0130A0000030A100B72A7C
:10056A00A001A10108000D22172208308312A80059
:10057A009D30A7000530A600A60BC12AA70BC12AE9
:10058A00A80BC12AC82A642203308312A700973015
:10059A00A600A60BCE2AA70BCE2AD32A08008312BE
:1005AA0022082304031DDA2ADB2AEA2A0130A400DE
:1005BA00200AE12A0310A40DFF3E031DDF2A2408A6
:1005CA00FF3AA50025088505F72A0130A400200A6C
:1005DA00F02A0310A40DFF3E031DEE2A2408A500ED
:1005EA002508850408008312A20083169C18FE2A97
:1005FA00FF2AFA2A8312220883169B0083122008F4
:10060A0083169A003F308312A100210883169C05A5
:10061A00831203108B1F122B132B142B03148B130F
:10062A0083161C1555309D00AA309D009C141C1180
:10063A008312031C212B222B232B8B1708008312D6
:10064A0022032304031D2A2B2B2B492B0130A40040
:10065A00200A312B0310A40DFF3E031D2F2B240863
:10066A00A50025088316850401308312A400200AF8
:10067A00402B0310A40DFF3E031D3E2B2408FF3A16
:10068A00A500250885057C2B023022062304031DBC
:10069A004F2B502B6D2B0130A400200A562B031030
:1006AA00A40DFF3E031D542B2408A500250883161C
:1006BA00850401308312A400200A652B0310A40DBF
:1006CA00FF3E031D632B2408A500250885047C2B07
:1006DA000130A400200A732B0310A40DFF3E031D52
:1006EA00712B2408FF3AA500250883168505080002
:1006FA0083169F0183129F0107309900831699017F
:10070A008501831285010230A0000030A100023069
:10071A00A2000030A300242382308312AE00DD3011
:10072A00AD00AD0B962BAE0B962B9B2BB822063049
:10073A008312AF001330AE00AD30AD00AD0BA32B6A
:10074A00AE0BA32BAF0BA32BAA2B00308B22831249
:10075A00AD002D08B00002308312A0000030A100C5
:10076A00A022831220082104031DBC2BBD2BCE2BF3
:10077A000130AD002D08B00703303002031CC62B30
:10078A00C72BC82BB0013008AD002D08A0000030DF
:10079A00F82283123008031DD32BD42BD62B3A22EE
:1007AA00ED2B3003031DDA2BDB2BDD2B4622ED2B41
:1007BA0002303006031DE22BE32BE52B2222ED2B20
:1007CA0003303006031DEA2BEB2BED2B2E22ED2BEB
:1007DA0002308312AF000430AE00BA30AD00AD0B68
:1007EA00F42BAE0BF42BAF0BF42B0000B02B00282C
:0407FA0083017D2BCF
:02400E00D431AB
:00000001FF
