:020000040000FA
:02000000FD2BD6
:1004540000308312A000A1000130A2000030A300EC
:100464000023080001308312A0000030A1000130F5
:10047400A2000030A300002308002A2234224E30B8
:100484008312A700EB30A600A60B462AA70B462A28
:1004940008006F2294224E308312A700EB30A6008E
:1004A400A60B522AA70B522A08002A2281224E3078
:1004B4008312A700EB30A600A60B5E2AA70B5E2AC8
:1004C40008006F2234224E308312A700EB30A600BE
:1004D400A60B6A2AA70B6A2A080000308312A00020
:1004E400A1000130A2000030A300DC2200308312FE
:1004F400A000A1000030A200A300002308000130E6
:100504008312A0000030A1000030A200A300DC226E
:1005140001308312A0000030A1000030A200A3002B
:100524000023080001308312A0000030A100013034
:10053400A2000030A300DC2201308312A0000030AE
:10054400A1000030A200A3000023080001308312A0
:10055400A200200AAF2A0310A20DFF3E031DAD2AFC
:10056400220805050319B72AB82ABD2A0130A000BC
:100574000030A100BF2AA001A10108002A223422D0
:1005840008308312A8009D30A7000530A600A60BF2
:10059400C92AA70BC92AA80BC92AD02A8122033049
:1005A4008312A7009730A600A60BD62AA70BD62A3B
:1005B400DB2A0800831222082304031DE22AE32A0B
:1005C400F22A0130A400200AE92A0310A40DFF3EF8
:1005D400031DE72A2408FF3AA50025088505FF2AFC
:1005E4000130A400200AF82A0310A40DFF3E031DC5
:1005F400F62A2408A500250885040800831222038E
:100604002304031D062B072B252B0130A400200AED
:100614000D2B0310A40DFF3E031D0B2B2408A50076
:1006240025088316850401308312A400200A1C2B9C
:100634000310A40DFF3E031D1A2B2408FF3AA50046
:1006440025088505582B023022062304031D2B2B75
:100654002C2B492B0130A400200A322B0310A40DAB
:10066400FF3E031D302B2408A500250883168504AE
:1006740001308312A400200A412B0310A40DFF3E75
:10068400031D3F2B2408A50025088504582B0130A1
:10069400A400200A4F2B0310A40DFF3E031D4D2B75
:1006A4002408FF3AA500250883168505080083164B
:1006B4009F0183129F0107309900831699018501D8
:1006C400831285010430A0000030A1000030A20094
:1006D400A300002302308312A0000030A1000230E6
:1006E400A2000030A300002304308312A0000030D5
:1006F400A1000130A2000030A300DC22823083126A
:10070400AE00DD30AD00AD0B852BAE0B852B8A2BF7
:10071400C02206308312AF001330AE00AD30AD00FE
:10072400AD0B922BAE0B922BAF0B922B992B04306B
:100734008312A0000030A1000030A200A300DC223C
:100744008312B00104308312A0000030A1000030F5
:10075400A200A300DC2202308312A0000030A1001A
:10076400A822831220082104031DB92BBA2BCF2BF6
:100774000430A0000030A1000130A2000030A3002A
:10078400DC2201308312AD002D08B00704303002A2
:10079400031CCD2BCE2BCF2BB0013008031DD32B44
:1007A400D42BD62B5722ED2B3003031DDA2BDB2B56
:1007B400DD2B6322ED2B02303006031DE22BE32BED
:1007C400E52B3F22ED2B03303006031DEA2BEB2BE8
:1007D400ED2B4B22ED2B02308312AF000430AE0020
:1007E400BA30AD00AD0BF42BAE0BF42BAF0BF42BE6
:0A07F4000000A42B00288301592BFC
:02400E00D431AB
:00000001FF
