:020000040000FA
:02000000FD2BD6
:1003BC0000308312A000A1000130A2000030A30085
:1003CC00F522080001308312A0000030A10001309A
:1003DC00A2000030A300F5220800DE21E8214E30F7
:1003EC008312A700EB30A600A60BFA29A70BFA295B
:1003FC000800232248224E308312A700EB30A600BF
:10040C00A60B062AA70B062A0800DE2135224E3041
:10041C008312A700EB30A600A60B122AA70B122AF8
:10042C0008002322E8214E308312A700EB30A600EF
:10043C00A60B1E2AA70B1E2A080000308312A00050
:10044C00A1000130A2000030A300A52200308312CD
:10045C00A000A1000030A200A300F522080001308A
:10046C008312A0000030A1000030A200A300A5223E
:10047C0001308312A0000030A1000030A200A300C4
:10048C00F522080001308312A0000030A1000130D9
:10049C00A2000030A300A52201308312A00000307E
:1004AC00A1000030A200A300F52208008312A100D5
:1004BC00640083169C18632A642A5E2A831221081E
:1004CC0083169B003F308312A000200883169C05E6
:1004DC001C141A08080001308312A200200A782A82
:1004EC000310A20DFF3E031D762A220805050319F1
:1004FC00802A812A862A0130A0000030A100882A97
:10050C00A001A1010800DE21E82108308312A80017
:10051C009D30A7000530A600A60B922AA70B922AA5
:10052C00A80B922A992A352203308312A700973000
:10053C00A600A60B9F2AA70B9F2AA42A08008312A9
:10054C0022082304031DAB2AAC2ABB2A0130A400C9
:10055C00200AB22A0310A40DFF3E031DB02A240862
:10056C00FF3AA50025088505C82A0130A400200AF9
:10057C00C12A0310A40DFF3E031DBF2A2408A500A9
:10058C002508850408008312A20083169C18CF2A24
:10059C00D02ACB2A8312220883169B0083122008B0
:1005AC0083169A003F308312A100210883169C0504
:1005BC00831203108B1FE32AE42AE52A03148B13FE
:1005CC0083161C1555309D00AA309D009C141C11DF
:1005DC008312031CF22AF32AF42A8B1708008312C5
:1005EC0022032304031DFB2AFC2A1A2B0130A4002E
:1005FC00200A022B0310A40DFF3E031D002B240820
:10060C00A50025088316850401308312A400200A56
:10061C00112B0310A40DFF3E031D0F2B2408FF3AD2
:10062C00A500250885054D2B023022062304031D49
:10063C00202B212B3E2B0130A400200A272B03104A
:10064C00A40DFF3E031D252B2408A50025088316A9
:10065C00850401308312A400200A362B0310A40D4C
:10066C00FF3E031D342B2408A500250885044D2BC3
:10067C000130A400200A442B0310A40DFF3E031DDF
:10068C00422B2408FF3AA50025088316850508008F
:10069C0083169F0183129F010730990083169901DD
:1006AC008501831285010430A0000030A1000030C8
:1006BC00A200A300F52202308312A0000030A1009A
:1006CC000230A2000030A300F52204308312A000F7
:1006DC000030A1000130A2000030A300A52282301E
:1006EC008312AE00DD30AD00AD0B7A2BAE0B7A2B46
:1006FC007F2B892206308312AF001330AE00AD3051
:10070C00AD00AD0B872BAE0B872BAF0B872B8E2B36
:10071C0004308312A0000030A1000030A200A3001E
:10072C00A52200305C228312AD002D08B0000430ED
:10073C008312A0000030A1000030A200A300A5226B
:10074C0002308312A0000030A10071228312200815
:10075C002104031DB22BB32BCE2B0430A000003090
:10076C00A1000130A2000030A300A52201308312A9
:10077C00AD002D08B00703303002031CC62BC72B6D
:10078C00C82BB0013008AD002D08A0000030C922E4
:10079C0083123008031DD32BD42BD62B0B22ED2B1D
:1007AC003003031DDA2BDB2BDD2B1722ED2B023054
:1007BC003006031DE22BE32BE52BF321ED2B03304D
:1007CC003006031DEA2BEB2BED2BFF21ED2B02301A
:1007DC008312AF000430AE00BA30AD00AD0BF42B79
:1007EC00AE0BF42BAF0BF42B00009D2B00288301D8
:0207FC004E2B82
:02400E00D431AB
:00000001FF
